:020000000C945E
:10000200D9000C9400000C9400000C9400000C9495
:1000120000000C9400000C9400000C9400000C945E
:1000220000000C9400000C9400000C9400000C944E
:1000320000000C9400000C9400000C9400000C943E
:1000420000000C9400000C9400000C9400000C942E
:1000520000001027E80364000A00010000100001FC
:10006200100001000000000000000000000000007D
:10007200000000000000000000000000000000007E
:100082000000000000000000000000004C657665E2
:100092006C202531642F25642020202025642D2505
:1000A2006400506C61796572205245442020202002
:1000B2002000506C6179657220475245454E2020E0
:1000C20020202000506C6179657220475245454ED0
:1000D2002057696E2E2E2100506C61796572205274
:1000E20045442057696E2E2E21005265736574694E
:1000F2006E672E2E2E00506C617965722047524534
:10010200454E3A20256400506C6179657220524553
:10011200443A2025640080C001002D4E414E004922
:100122004E46000001000200660002000400680062
:1001320010006002A40012007002B40014008202D7
:10014200C60014009602C6001400AA02C6001400DB
:10015200BE02C6001400D202C6001400E602C600A7
:100162001400FA02C60014000E03C6001200220395
:10017200DA0012003403DA0012004603DA00120039
:100182005803DA0012006A03DA0012007C03DA0074
:1001920012008E03DA001200A003DA000C00B20390
:1001A200EC000200D00318010100D4031A01000080
:1001B200F894EE27ECBBF1E0FBBFEBBFE5BF8DE0AF
:1001C200A2E0BB27ED938A95E9F780E098E0A0E6EC
:1001D200ED930197E9F7E6E2F1E0859195910097B9
:1001E20061F0A591B59105901590BF01F0010590C0
:1001F2000D920197E1F7FB01F0CFEFE5EDBFE8E0EB
:10020200EEBFC0E6D2E00C94C5010E940E07E7ECF7
:10021200E7BBA0E0C799A1E0EA2FE795E0E0E79508
:100222000E2EA0E0C699A1E0EA2FE295E07FEE0F44
:10023200EE0FE029EF63E8BB002E012AD1F5C0984A
:100242000E941307B39903C001E010E032C0B499D1
:1002520003C004E010E02DC0B59903C007E010E030
:1002620028C0C09AC1980E941307B39903C002E044
:1002720010E01FC0B49903C005E010E01AC0B599A0
:1002820003C008E010E015C0C19AC2980E9413078B
:10029200B39903C003E010E00CC0B49903C006E0B8
:1002A20010E007C0B59903C009E010E002C0C29A8D
:1002B200C3CFA2E3B0E00E947708F80162C0BA930C
:1002C200AA930E940E0700E010E00930E0E01E074A
:1002D2007CF40E9417070E94CF08AA81BB81EA170B
:1002E200FB0719F4E0E0F0E013C00F5F1F4FEDCF02
:1002F200F201AEEBB3E0EE0FFF1FEA0FFB1FAA8184
:10030200BB81A083B183F20131962F01EA81FB8187
:1003120019810881249608950E940E07C698C798ED
:100322000E941F07AF9897980E941F07AE98969851
:100332000E941F07AB9893980E941F07AC9894984D
:100342000E941F07AD9895980E941F07AA9892983D
:100352000E941F07A99891980E941F07A898909839
:100362004424552400E010E00930E0E01E074CF47C
:100372000E941707E0E0F0E0ED93FC930F5F1F4F40
:10038200F3CF099119910895A49784E2A0E0B0E017
:10039200EAE6F0E00E94EA0840E050E0E0E0EABB72
:1003A200EBBBE0ECE7BBE0E0E8BBEFEFE4BBE0E097
:1003B200E5BBEFEFE1BBE0E0E2BBA0E10E9402059A
:1003C200E9B3E870F0E0E883F98321E030E024301B
:1003D200E0E03E070CF090C20E942307EEE8F0E056
:1003E200FA93EA93F9010E942A07E3E0F0E060E061
:1003F20070E00E94D708FA010E942A07EAA9FBA925
:100402000E942A0780E10E94A40664960E942F0798
:100412000E94380720FE03C0A0E6B2E002C0A0E7B7
:10042200B2E00E94F10420FC04C0E881F981309717
:1004320029F4EBDEDF0143DF8F0102C00FEF1FEF74
:10044200002E012A09F452C220FCDBC0E881F981A6
:10045200309709F4A1C02297E1E0E883E0E0E98364
:100462000E94D8063596DF01E9E0F0E00E94C1085B
:1004720031968F01E881F981309709F48BC0002E03
:10048200012A11F409E010E00E943D0759F4A899ED
:1004920002C0909B03C0015010407BC00E944207E3
:1004A200A89A77C0E230A0E0FA0759F4A99902C0ED
:1004B200919B03C0015010406CC00E944207A99A50
:1004C20068C0E330A0E0FA0759F4AA9902C0929BEF
:1004D20003C0015010405DC00E944207AA9A59C051
:1004E200E430A0E0FA0759F4AB9902C0939B03C031
:1004F200015010404EC00E944207AB9A4AC0E530FC
:10050200A0E0FA0759F4AC9902C0949B03C00150D1
:1005120010403FC00E944207AC9A3BC0E630A0E0C8
:10052200FA0759F4AD9902C0959B03C001501040DF
:1005320030C00E944207AD9A2CC0E730A0E0FA0713
:1005420059F4AE9902C0969B03C00150104021C0DD
:100552000E944207AE9A1DC0E830A0E0FA0759F4A3
:10056200AF9902C0979B03C00150104012C00E9475
:100572004207AF9A0EC0E930A0E0FA0751F4C699DB
:1005820002C0C79B03C00150104003C00E94420733
:10059200C69A70CF229634C00E943D0711F4A89AE1
:1005A2002FC0E230A0E0FA0711F4A99A29C0E33083
:1005B200A0E0FA0711F4AA9A23C0E430A0E0FA07F7
:1005C20011F4AB9A1DC0E530A0E0FA0711F4AC9A21
:1005D20017C0E630A0E0FA0711F4AD9A11C0E73077
:1005E200A0E0FA0711F4AE9A0BC0E830A0E0FA07D7
:1005F20011F4AF9A05C0E930A0E0FA0709F4C69AEF
:1006020034C00E943D0711F4909A2FC0E230A0E05E
:10061200FA0711F4919A29C0E330A0E0FA0711F425
:10062200929A23C0E430A0E0FA0711F4939A1DC015
:10063200E530A0E0FA0711F4949A17C0E630A0E082
:10064200FA0711F4959A11C0E730A0E0FA0711F405
:10065200969A0BC0E830A0E0FA0711F4979A05C009
:10066200E930A0E0FA0709F4C79AA89B04C0A99B45
:1006720002C0AA9901C00CC00E944C07A2E8B2E0D5
:100682000E9450070E9456070E94560745DE2FC15E
:10069200AB9B04C0AC9B02C0AD9901C00CC00E94D0
:1006A2004C07A6E9B2E00E9450070E9464070E942C
:1006B200640732DE1CC1AE9B04C0AF9B02C0C69968
:1006C20001C00CC00E944C07AAEAB2E00E94500787
:1006D2000E9472070E9472071FDE09C1A89B04C014
:1006E200AB9B02C0AE9901C00CC00E944C07AEEB9E
:1006F200B2E00E9450070E9480070E9480070CDE31
:10070200F6C0A99B04C0AC9B02C0AF9901C00CC04B
:100712000E944C07A2EDB2E00E9450070E948E0791
:100722000E948E07F9DDE3C0AA9B04C0AD9B02C004
:10073200C69901C00CC00E944C07A6EEB2E00E940E
:1007420050070E949C070E949C07E6DDD0C0A89B30
:1007520004C0AC9B02C0C69901C00CC00E944C07E9
:10076200AAEFB2E00E9450070E94AA070E94AA07BD
:10077200D3DDBDC0AA9B04C0AC9B02C0AE9901C030
:100782000CC00E944C07AEE0B3E00E9450070E94EA
:10079200B8070E94B807C0DDAAC0909B04C0919B15
:1007A20002C0929901C00CC00E94C607A2E2B3E047
:1007B2000E9450070E94CD070E94CD07ADDD97C071
:1007C200939B04C0949B02C0959901C00CC00E94E7
:1007D200C607A4E3B3E00E9450070E94DB070E9411
:1007E200DB079ADD84C0969B04C0979B02C0C79921
:1007F20001C00CC00E94C607A6E4B3E00E945007E5
:100802000E94E9070E94E90787DD71C0909B04C03E
:10081200939B02C0969901C00CC00E94C607A8E52E
:10082200B3E00E9450070E94F7070E94F70774DDA9
:100832005EC0919B04C0949B02C0979901C00CC0FA
:100842000E94C607AAE6B3E00E9450070E9405086C
:100852000E94050861DD4BC0929B04C0959B02C0BB
:10086200C79901C00CC00E94C607ACE7B3E00E9462
:1008720050070E9413080E9413084EDD38C0909B57
:1008820004C0949B02C0C79901C00CC00E94C60755
:10089200AEE8B3E00E9450070E9421080E9421089E
:1008A2003BDD25C0969B04C0949B02C0929901C077
:1008B2000CC00E94C607A0EAB3E00E9450070E9443
:1008C2002F080E942F0828DD12C0E1E02E26E9E061
:1008D200F0E0E415F50551F4A8EEB3E00E947708C4
:1008E2000E943807A2EBB3E07BD016DD91CDE1E0A8
:1008F2002E262F5F3F4F6BCD0E942307E8EFF0E0DB
:10090200FA93EA93FA010E942A0784E00E94A4065D
:1009120028960E942F07FE013296FA93EA93E9E0A5
:10092200F1E0FA93EA93EEA1FFA10E942A0784E084
:100932000E94A40628960E943807DE01129650D023
:10094200A496FFCFAA93EBB3EF70AE2FE881E07FBE
:10095200EA2BEBBB8DE08A95F1F7DA9A8DE08A9566
:10096200F1F7DA988DE08A95F1F777C0AA93A8811A
:10097200E9DFE881E295E883A881E4DF85E88A95EA
:10098200F1F76BC0AA93E881F0E0E053FC4FE081FD
:10099200A981AE0FEBDF7980688022960895A2E0EC
:1009A2000E943D08ACE0E2DFA1E00E943D08E0E0E9
:1009B2006E2E7E2E0895AA93A881AA3011F0791482
:1009C20048F0E0E0EA936394A62DDCDFA881AA3028
:1009D20009F443C07394D89AA881C8DFD8983DC05F
:1009E200BA93AA931A93A981BA81ED91A983BA8382
:1009F2001E2FE03019F0A12FDEDFF5CF18812396EC
:100A02000895AA93EAB3E06FEABBD29AD09AD19A38
:100A1200DA98D898D9989880E881E058E093D20380
:100A2200E881E054E093D303A4E1B0E00E947708A8
:100A32000E9443080E9443080E944308A0E282DF0A
:100A420088EC90E00197F1F7A8E290DFA4E08EDF56
:100A5200A5E88CDFA6E08ADFA2DF21960895BA938B
:100A6200AA931A930A93AA81BB8112960E94CF0875
:100A7200309759F1AA81BB8114960E94CF088F0149
:100A8200309761F00230E0E01E0798F0F8013197EC
:100A92008F01AA81BB811496ED93FC93AA81BB813D
:100AA2001296ED91FD913196FE93EE933197AC81C2
:100AB200A083AA81BB810E94CF08FF232AF0ED9177
:100AC200FD913196FE93EE9306C0AA81BB81EFEFB2
:100AD200FFEFED93FC931981088125960895BA934F
:100AE200AA9326970E94DC0810E0AC85BD85E0E061
:100AF200F0E0ED93FC93EA89FB893196EA8BFB8B5C
:100B02003197E4912E2FE03009F415C1E12FE03046
:100B120039F4253211F411E002C00E944B080AC1D7
:100B2200E130A9F4253219F40E944B0802C112E007
:100B320040E000E02D3211F401E0FCC02B3211F450
:100B42004BE2F8C0203211F440E2F4C002C0E230BD
:100B520039F450E013E0203311F40068EBC003C015
:100B6200E33009F0E7C0203310F02A3308F007C061
:100B7200AAE05A9F502DE22FE0535E0FDBC0E22F16
:100B8200E33649F40E945208E889F989A481AA93BC
:100B92000E945808CEC0E33741F40E9452080E94D6
:100BA2005E080E94F5061E2F0AC0E03761F40E941B
:100BB20052080E945E080E9401071E2F0860026010
:100BC2000F7730E034C0E43611F0E93611F40460F6
:100BD20002C0E53731F4E4E5F0E0EE83FF8315E08F
:100BE2000CC0E83511F4086003C0E83709F0A1C071
:100BF200EEE5F0E0EE83FF8314E002FF14C00E94F2
:100C020052080E946808AB85AA233AF4EA85FB855C
:100C12000E948508EA87FB874DE2403011F01F5F92
:100C220001C00B7F04C00E9452080E94680800FDA8
:100C320011C0151778F407FF08C002FF04C00B7F2C
:100C4200242F115001C020E301C020E20E944B0872
:100C52005150EFCF312F01FF17C03030A1F003FF09
:100C620006C0EE81FF812591EE83FF8305C0AE8130
:100C7200BF812D91AE83BF830E944B08503009F093
:100C820051503150EACF4BC020E3EE81FF810E94E8
:100C9200D308E887F987EE81FF813296EE83FF83DE
:100CA200E885F985AA85BB85AE17BF0750F02F5F8F
:100CB200A885B985EA85FB85EA1BFB0BEA87FB87DA
:100CC200EFCF2A3328F003FF02C0295F01C0295D5C
:100CD20004FD1AC0213320F4A885B985119709F4BF
:100CE20009C0531710F000FF01C013C020E207FF34
:100CF2000BC020E3006102FF07C00B7F4A930E94F2
:100D02005808503009F051500E944B08503009F0F9
:100D120051503150A885B985129708F0B5CF00FF20
:100D220008C0503031F05150E0E2EA930E94580876
:100D3200F8CF10E0E0CEAC85BD850E94CF080E94BE
:100D4200E30864960895FF92F82E26970E94DE0823
:100D52000E947008309719F4EFEFFFEF23C0DE0115
:100D620016960E9481088D010E947008EE83FF830F
:100D7200E0E0E887E987DE011A960E9481080E9476
:100D8200CF08FA93EA931A930A93E0E3F5E0FA9311
:100D9200EA93DE011A96A3DE9F01AE81BF81E0E0F5
:100DA200EC93F9010E94E5082A96FF900895E091DC
:100DB200D403F091D5036091D6037091D703ADE6C9
:100DC200BEE486EC91E40E948E08EE59F8486F4F1B
:100DD2007F4FE093D403F093D5036093D6037093CF
:100DE200D703FB01FF770895BA93AA93A991B9910A
:100DF200EE27FF276D91662311F03196FBCF089500
:100E0200BA93AA93AA27BB27E991F99105900020EA
:100E120011F01196FBCFFD0108951A930A9300E099
:100E220010E00895A1E0B0E00C947708F801AEEB71
:100E3200B3E0EE0FFF1FAE0FBF1F0895A4E6B0E0B0
:100E42000C9477080E94D004FE013296FA93EA933A
:100E520008950E9489080E94D7080895E0E0EA9365
:100E6200A0E00E94C304DE0112960C94F104E0E0BB
:100E7200EA93A1E00C94C304F801E130A0E0FA0780
:100E82000895D8010E946001E0E0E883E983ACEBB9
:100E9200B2E00C9477084F5F5F4F0C94D0040E942D
:100EA200F104ACE2B1E00C947708A898A998AA984A
:100EB200ACE2B1E00E947708A89AA99AAA9AACE299
:100EC200B1E00C947708AB98AC98AD98ACE2B1E085
:100ED2000E947708AB9AAC9AAD9AACE2B1E00C945E
:100EE2007708AE98AF98C698ACE2B1E00E94770856
:100EF200AE9AAF9AC69AACE2B1E00C947708A89881
:100F0200AB98AE98ACE2B1E00E947708A89AAB9A8F
:100F1200AE9AACE2B1E00C947708A998AC98AF987D
:100F2200ACE2B1E00E947708A99AAC9AAF9AACE21F
:100F3200B1E00C947708AA98AD98C698ACE2B1E0FB
:100F42000E947708AA9AAD9AC69AACE2B1E00C94D4
:100F52007708A898AC98C698ACE2B1E00E947708EE
:100F6200A89AAC9AC69AACE2B1E00C947708AA9817
:100F7200AC98AE98ACE2B1E00E947708AA9AAC9A1B
:100F8200AE9AACE2B1E00C947708EAA1FBA13196EB
:100F9200EAA3FBA30C94D004909891989298ACE2A7
:100FA200B1E00E947708909A919A929AACE2B1E0ED
:100FB2000C947708939894989598ACE2B1E00E94CB
:100FC2007708939A949A959AACE2B1E00C947708D8
:100FD20096989798C798ACE2B1E00E947708969AE3
:100FE200979AC79AACE2B1E00C94770890989398DC
:100FF2009698ACE2B1E00E947708909A939A969AFA
:10100200ACE2B1E00C947708919894989798ACE28E
:10101200B1E00E947708919A949A979AACE2B1E073
:101022000C94770892989598C798ACE2B1E00E9428
:101032007708929A959AC79AACE2B1E00C94770835
:1010420090989498C798ACE2B1E00E947708909A81
:10105200949AC79AACE2B1E00C9477089698949867
:101062009298ACE2B1E00E947708969A949A929A8A
:10107200ACE2B1E00C9477080E94B704A3E0B0E0C0
:101082000C947708A0E30E94A30488EC90E00197F7
:10109200F1F708952A93AD85BE85EF85F889099504
:1010A2000895E889F9893497E88BF98B0895AD851D
:1010B200BE85EF85F88909950895A889B98914969E
:1010C2000E94CF08EE83FF83AE81BF810895A88975
:1010D200B98914960E94CF08EA87FB870895DE013A
:1010E2001C960E9481080E94CF080895109639F03C
:1010F20080ED97E00197F1F7A8951197C9F7089548
:101102000024AF0DB01D0895F195E195F0400895CA
:101112006F2F660F660B762F08957A9F702D6B9F47
:10112200700DF89F700DE99F700D6A9F602D710D13
:10113200FB9F600D711DE89F600D711D8827FA9F4E
:10114200F02D610D781FEB9FF00D611D781FEA9F56
:10115200E02DF10D681F781F08950024112490E1FD
:10116200AA0FBB1F001C111C0E1A1F0A18F40E0E28
:101172001F1E01C0A1609A9599F7FD01D001089543
:10118200E894B7FF04C0A095B09511966894F7FD56
:10119200BBDFE3DFFD010EF4B7DF0895ED91FC91B3
:1011A200119708950590F491E02D08957A936A932A
:1011B200FA93EA9308955A934A933A932A931A9385
:1011C2000A9308955D814C813B812A8119810881AE
:1011D2000895AC0FBD1F05900D928A95E1F7089511
:00000001FF
